{
  "contractName": "Identity",
  "abi": [
    {
      "inputs": [],
      "stateMutability": "nonpayable",
      "type": "constructor"
    },
    {
      "anonymous": false,
      "inputs": [
        {
          "indexed": false,
          "internalType": "string",
          "name": "srn",
          "type": "string"
        },
        {
          "indexed": false,
          "internalType": "string",
          "name": "hash",
          "type": "string"
        }
      ],
      "name": "Registered",
      "type": "event"
    },
    {
      "anonymous": false,
      "inputs": [
        {
          "indexed": false,
          "internalType": "string",
          "name": "srn",
          "type": "string"
        }
      ],
      "name": "Verified",
      "type": "event"
    },
    {
      "inputs": [],
      "name": "admin",
      "outputs": [
        {
          "internalType": "address",
          "name": "",
          "type": "address"
        }
      ],
      "stateMutability": "view",
      "type": "function",
      "constant": true
    },
    {
      "inputs": [
        {
          "internalType": "string",
          "name": "",
          "type": "string"
        }
      ],
      "name": "usersBySrn",
      "outputs": [
        {
          "internalType": "string",
          "name": "ipfsHash",
          "type": "string"
        },
        {
          "internalType": "bool",
          "name": "isVerified",
          "type": "bool"
        },
        {
          "internalType": "address",
          "name": "walletAddress",
          "type": "address"
        }
      ],
      "stateMutability": "view",
      "type": "function",
      "constant": true
    },
    {
      "inputs": [
        {
          "internalType": "string",
          "name": "_srn",
          "type": "string"
        },
        {
          "internalType": "string",
          "name": "_ipfsHash",
          "type": "string"
        }
      ],
      "name": "register",
      "outputs": [],
      "stateMutability": "nonpayable",
      "type": "function"
    },
    {
      "inputs": [
        {
          "internalType": "string",
          "name": "_srn",
          "type": "string"
        }
      ],
      "name": "verify",
      "outputs": [],
      "stateMutability": "nonpayable",
      "type": "function"
    },
    {
      "inputs": [
        {
          "internalType": "string",
          "name": "_srn",
          "type": "string"
        }
      ],
      "name": "getUser",
      "outputs": [
        {
          "internalType": "string",
          "name": "",
          "type": "string"
        },
        {
          "internalType": "bool",
          "name": "",
          "type": "bool"
        },
        {
          "internalType": "address",
          "name": "",
          "type": "address"
        }
      ],
      "stateMutability": "view",
      "type": "function",
      "constant": true
    }
  ],
  "bytecode": "0x608060405234801561001057600080fd5b50336000806101000a81548173ffffffffffffffffffffffffffffffffffffffff021916908373ffffffffffffffffffffffffffffffffffffffff160217905550611167806100606000396000f3fe608060405234801561001057600080fd5b50600436106100575760003560e01c806331feb6711461005c5780633ffbd47f1461008e5780637c71be06146100aa578063bb9c6c3e146100dc578063f851a440146100f8575b600080fd5b61007660048036038101906100719190610920565b610116565b60405161008593929190610a44565b60405180910390f35b6100a860048036038101906100a39190610a82565b610246565b005b6100c460048036038101906100bf9190610920565b61048d565b6040516100d393929190610a44565b60405180910390f35b6100f660048036038101906100f19190610920565b610582565b005b6101006107a2565b60405161010d9190610afa565b60405180910390f35b606060008060018460405161012b9190610b51565b908152602001604051809103902060000160018560405161014c9190610b51565b908152602001604051809103902060010160009054906101000a900460ff1660018660405161017b9190610b51565b908152602001604051809103902060010160019054906101000a900473ffffffffffffffffffffffffffffffffffffffff168280546101b990610b97565b80601f01602080910402602001604051908101604052809291908181526020018280546101e590610b97565b80156102325780601f1061020757610100808354040283529160200191610232565b820191906000526020600020905b81548152906001019060200180831161021557829003601f168201915b505050505092509250925092509193909250565b600082511161028a576040517f08c379a000000000000000000000000000000000000000000000000000000000815260040161028190610c14565b60405180910390fd5b60008151116102ce576040517f08c379a00000000000000000000000000000000000000000000000000000000081526004016102c590610c80565b60405180910390fd5b600073ffffffffffffffffffffffffffffffffffffffff166001836040516102f69190610b51565b908152602001604051809103902060010160019054906101000a900473ffffffffffffffffffffffffffffffffffffffff1673ffffffffffffffffffffffffffffffffffffffff161461037e576040517f08c379a000000000000000000000000000000000000000000000000000000000815260040161037590610cec565b60405180910390fd5b60405180606001604052808281526020016000151581526020013373ffffffffffffffffffffffffffffffffffffffff168152506001836040516103c29190610b51565b908152602001604051809103902060008201518160000190816103e59190610ec2565b5060208201518160010160006101000a81548160ff02191690831515021790555060408201518160010160016101000a81548173ffffffffffffffffffffffffffffffffffffffff021916908373ffffffffffffffffffffffffffffffffffffffff1602179055509050507f98f2274c7560ce50d4e94e8b5d67482cf39fd6d729d0df6440c95e1d77dcbd9f8282604051610481929190610f94565b60405180910390a15050565b6001818051602081018201805184825260208301602085012081835280955050505050506000915090508060000180546104c690610b97565b80601f01602080910402602001604051908101604052809291908181526020018280546104f290610b97565b801561053f5780601f106105145761010080835404028352916020019161053f565b820191906000526020600020905b81548152906001019060200180831161052257829003601f168201915b5050505050908060010160009054906101000a900460ff16908060010160019054906101000a900473ffffffffffffffffffffffffffffffffffffffff16905083565b60008054906101000a900473ffffffffffffffffffffffffffffffffffffffff1673ffffffffffffffffffffffffffffffffffffffff163373ffffffffffffffffffffffffffffffffffffffff1614610610576040517f08c379a000000000000000000000000000000000000000000000000000000000815260040161060790611017565b60405180910390fd5b600073ffffffffffffffffffffffffffffffffffffffff166001826040516106389190610b51565b908152602001604051809103902060010160019054906101000a900473ffffffffffffffffffffffffffffffffffffffff1673ffffffffffffffffffffffffffffffffffffffff16036106c0576040517f08c379a00000000000000000000000000000000000000000000000000000000081526004016106b790611083565b60405180910390fd5b6001816040516106d09190610b51565b908152602001604051809103902060010160009054906101000a900460ff161561072f576040517f08c379a0000000000000000000000000000000000000000000000000000000008152600401610726906110ef565b60405180910390fd5b600180826040516107409190610b51565b908152602001604051809103902060010160006101000a81548160ff0219169083151502179055507f3f3cfdb26fb5f9f1786ab4f1a1f9cd4c0b5e726cbdfc26e495261731aad44e3981604051610797919061110f565b60405180910390a150565b60008054906101000a900473ffffffffffffffffffffffffffffffffffffffff1681565b6000604051905090565b600080fd5b600080fd5b600080fd5b600080fd5b6000601f19601f8301169050919050565b7f4e487b7100000000000000000000000000000000000000000000000000000000600052604160045260246000fd5b61082d826107e4565b810181811067ffffffffffffffff8211171561084c5761084b6107f5565b5b80604052505050565b600061085f6107c6565b905061086b8282610824565b919050565b600067ffffffffffffffff82111561088b5761088a6107f5565b5b610894826107e4565b9050602081019050919050565b82818337600083830152505050565b60006108c36108be84610870565b610855565b9050828152602081018484840111156108df576108de6107df565b5b6108ea8482856108a1565b509392505050565b600082601f830112610907576109066107da565b5b81356109178482602086016108b0565b91505092915050565b600060208284031215610936576109356107d0565b5b600082013567ffffffffffffffff811115610954576109536107d5565b5b610960848285016108f2565b91505092915050565b600081519050919050565b600082825260208201905092915050565b60005b838110156109a3578082015181840152602081019050610988565b60008484015250505050565b60006109ba82610969565b6109c48185610974565b93506109d4818560208601610985565b6109dd816107e4565b840191505092915050565b60008115159050919050565b6109fd816109e8565b82525050565b600073ffffffffffffffffffffffffffffffffffffffff82169050919050565b6000610a2e82610a03565b9050919050565b610a3e81610a23565b82525050565b60006060820190508181036000830152610a5e81866109af565b9050610a6d60208301856109f4565b610a7a6040830184610a35565b949350505050565b60008060408385031215610a9957610a986107d0565b5b600083013567ffffffffffffffff811115610ab757610ab66107d5565b5b610ac3858286016108f2565b925050602083013567ffffffffffffffff811115610ae457610ae36107d5565b5b610af0858286016108f2565b9150509250929050565b6000602082019050610b0f6000830184610a35565b92915050565b600081905092915050565b6000610b2b82610969565b610b358185610b15565b9350610b45818560208601610985565b80840191505092915050565b6000610b5d8284610b20565b915081905092915050565b7f4e487b7100000000000000000000000000000000000000000000000000000000600052602260045260246000fd5b60006002820490506001821680610baf57607f821691505b602082108103610bc257610bc1610b68565b5b50919050565b7f53524e2069732072657175697265640000000000000000000000000000000000600082015250565b6000610bfe600f83610974565b9150610c0982610bc8565b602082019050919050565b60006020820190508181036000830152610c2d81610bf1565b9050919050565b7f4950465320686173682069732072657175697265640000000000000000000000600082015250565b6000610c6a601583610974565b9150610c7582610c34565b602082019050919050565b60006020820190508181036000830152610c9981610c5d565b9050919050565b7f4964656e7469747920616c726561647920726567697374657265640000000000600082015250565b6000610cd6601b83610974565b9150610ce182610ca0565b602082019050919050565b60006020820190508181036000830152610d0581610cc9565b9050919050565b60008190508160005260206000209050919050565b60006020601f8301049050919050565b600082821b905092915050565b600060088302610d6e7fffffffffffffffffffffffffffffffffffffffffffffffffffffffffffffffff82610d31565b610d788683610d31565b95508019841693508086168417925050509392505050565b6000819050919050565b6000819050919050565b6000610dbf610dba610db584610d90565b610d9a565b610d90565b9050919050565b6000819050919050565b610dd983610da4565b610ded610de582610dc6565b848454610d3e565b825550505050565b600090565b610e02610df5565b610e0d818484610dd0565b505050565b5b81811015610e3157610e26600082610dfa565b600181019050610e13565b5050565b601f821115610e7657610e4781610d0c565b610e5084610d21565b81016020851015610e5f578190505b610e73610e6b85610d21565b830182610e12565b50505b505050565b600082821c905092915050565b6000610e9960001984600802610e7b565b1980831691505092915050565b6000610eb28383610e88565b9150826002028217905092915050565b610ecb82610969565b67ffffffffffffffff811115610ee457610ee36107f5565b5b610eee8254610b97565b610ef9828285610e35565b600060209050601f831160018114610f2c5760008415610f1a578287015190505b610f248582610ea6565b865550610f8c565b601f198416610f3a86610d0c565b60005b82811015610f6257848901518255600182019150602085019450602081019050610f3d565b86831015610f7f5784890151610f7b601f891682610e88565b8355505b6001600288020188555050505b505050505050565b60006040820190508181036000830152610fae81856109af565b90508181036020830152610fc281846109af565b90509392505050565b7f4f6e6c792061646d696e2063616e20766572696679206964656e746974696573600082015250565b6000611001602083610974565b915061100c82610fcb565b602082019050919050565b6000602082019050818103600083015261103081610ff4565b9050919050565b7f4964656e74697479206e6f7420666f756e640000000000000000000000000000600082015250565b600061106d601283610974565b915061107882611037565b602082019050919050565b6000602082019050818103600083015261109c81611060565b9050919050565b7f4964656e7469747920616c726561647920766572696669656400000000000000600082015250565b60006110d9601983610974565b91506110e4826110a3565b602082019050919050565b60006020820190508181036000830152611108816110cc565b9050919050565b6000602082019050818103600083015261112981846109af565b90509291505056fea2646970667358221220b7021a9d396d3abc68118bb1162a074197aaf8583adb1f363ceb337042c5b08a64736f6c63430008120033",
  "immutableReferences": {},
  "source": "// SPDX-License-Identifier: MIT\r\npragma solidity ^0.8.18;\r\n\r\ncontract Identity {\n    address public admin;\n\n    struct User {\n        string ipfsHash;\n        bool isVerified;\n        address walletAddress;\n    }\r\n\r\n    mapping(string => User) public usersBySrn;\r\n\r\n    event Registered(string srn, string hash);\n    event Verified(string srn);\n\n    modifier onlyAdmin() {\n        require(msg.sender == admin, \"Only admin can verify identities\");\n        _;\n    }\n\n    constructor() {\n        admin = msg.sender;\n    }\n\n    function register(string memory _srn, string memory _ipfsHash) public {\n        require(bytes(_srn).length > 0, \"SRN is required\");\n        require(bytes(_ipfsHash).length > 0, \"IPFS hash is required\");\n        require(usersBySrn[_srn].walletAddress == address(0), \"Identity already registered\");\n\n        usersBySrn[_srn] = User(_ipfsHash, false, msg.sender);\n        emit Registered(_srn, _ipfsHash);\n    }\n\n    function verify(string memory _srn) public onlyAdmin {\n        require(usersBySrn[_srn].walletAddress != address(0), \"Identity not found\");\n        require(!usersBySrn[_srn].isVerified, \"Identity already verified\");\n\n        usersBySrn[_srn].isVerified = true;\n        emit Verified(_srn);\n    }\n\r\n    function getUser(string memory _srn) public view returns (string memory, bool, address) {\r\n        return (usersBySrn[_srn].ipfsHash, usersBySrn[_srn].isVerified, usersBySrn[_srn].walletAddress);\r\n    }\r\n}\n",
  "sourcePath": "D:\\VANYA-25\\B.Tech\\SEM 6\\BC\\bc_mini\\Blockchain-identity-verification-system\\backend\\contracts\\Identity.sol",
  "compiler": {
    "name": "solc",
    "version": "0.8.18+commit.87f61d96.Emscripten.clang"
  },
  "schemaVersion": "3.4.16",
  "updatedAt": "2026-04-15T05:19:06.395Z",
  "networkType": "ethereum",
  "devdoc": {
    "kind": "dev",
    "methods": {},
    "version": 1
  },
  "userdoc": {
    "kind": "user",
    "methods": {},
    "version": 1
  }
}