{
  "contractName": "Identity",
  "abi": [
    {
      "anonymous": false,
      "inputs": [
        {
          "indexed": false,
          "internalType": "address",
          "name": "user",
          "type": "address"
        },
        {
          "indexed": false,
          "internalType": "string",
          "name": "hash",
          "type": "string"
        }
      ],
      "name": "Registered",
      "type": "event"
    },
    {
      "anonymous": false,
      "inputs": [
        {
          "indexed": false,
          "internalType": "address",
          "name": "user",
          "type": "address"
        }
      ],
      "name": "Verified",
      "type": "event"
    },
    {
      "inputs": [
        {
          "internalType": "address",
          "name": "",
          "type": "address"
        }
      ],
      "name": "users",
      "outputs": [
        {
          "internalType": "string",
          "name": "ipfsHash",
          "type": "string"
        },
        {
          "internalType": "bool",
          "name": "isVerified",
          "type": "bool"
        }
      ],
      "stateMutability": "view",
      "type": "function",
      "constant": true
    },
    {
      "inputs": [
        {
          "internalType": "string",
          "name": "_ipfsHash",
          "type": "string"
        }
      ],
      "name": "register",
      "outputs": [],
      "stateMutability": "nonpayable",
      "type": "function"
    },
    {
      "inputs": [
        {
          "internalType": "address",
          "name": "_user",
          "type": "address"
        }
      ],
      "name": "verify",
      "outputs": [],
      "stateMutability": "nonpayable",
      "type": "function"
    },
    {
      "inputs": [
        {
          "internalType": "address",
          "name": "_user",
          "type": "address"
        }
      ],
      "name": "getUser",
      "outputs": [
        {
          "internalType": "string",
          "name": "",
          "type": "string"
        },
        {
          "internalType": "bool",
          "name": "",
          "type": "bool"
        }
      ],
      "stateMutability": "view",
      "type": "function",
      "constant": true
    }
  ],
  "bytecode": "0x608060405234801561001057600080fd5b50610a9c806100206000396000f3fe608060405234801561001057600080fd5b506004361061004c5760003560e01c806363a9c3d7146100515780636f77926b1461006d578063a87430ba1461009e578063f2c298be146100cf575b600080fd5b61006b6004803603810190610066919061049e565b6100eb565b005b6100876004803603810190610082919061049e565b61017f565b604051610095929190610576565b60405180910390f35b6100b860048036038101906100b3919061049e565b6102a8565b6040516100c6929190610576565b60405180910390f35b6100e960048036038101906100e491906106db565b610361565b005b60016000808373ffffffffffffffffffffffffffffffffffffffff1673ffffffffffffffffffffffffffffffffffffffff16815260200190815260200160002060010160006101000a81548160ff0219169083151502179055507f6a6455914f452787eb3985452aceedc1000fb545e394eb3b370e3d08958e0a5b816040516101749190610733565b60405180910390a150565b606060008060008473ffffffffffffffffffffffffffffffffffffffff1673ffffffffffffffffffffffffffffffffffffffff1681526020019081526020016000206000016000808573ffffffffffffffffffffffffffffffffffffffff1673ffffffffffffffffffffffffffffffffffffffff16815260200190815260200160002060010160009054906101000a900460ff1681805461021f9061077d565b80601f016020809104026020016040519081016040528092919081815260200182805461024b9061077d565b80156102985780601f1061026d57610100808354040283529160200191610298565b820191906000526020600020905b81548152906001019060200180831161027b57829003601f168201915b5050505050915091509150915091565b60006020528060005260406000206000915090508060000180546102cb9061077d565b80601f01602080910402602001604051908101604052809291908181526020018280546102f79061077d565b80156103445780601f1061031957610100808354040283529160200191610344565b820191906000526020600020905b81548152906001019060200180831161032757829003601f168201915b5050505050908060010160009054906101000a900460ff16905082565b6040518060400160405280828152602001600015158152506000803373ffffffffffffffffffffffffffffffffffffffff1673ffffffffffffffffffffffffffffffffffffffff16815260200190815260200160002060008201518160000190816103cc9190610964565b5060208201518160010160006101000a81548160ff0219169083151502179055509050507fb3eccf73f39b1c07947c780b2b39df2a1bb058b4037b0a42d0881ca1a028a1323382604051610421929190610a36565b60405180910390a150565b6000604051905090565b600080fd5b600080fd5b600073ffffffffffffffffffffffffffffffffffffffff82169050919050565b600061046b82610440565b9050919050565b61047b81610460565b811461048657600080fd5b50565b60008135905061049881610472565b92915050565b6000602082840312156104b4576104b3610436565b5b60006104c284828501610489565b91505092915050565b600081519050919050565b600082825260208201905092915050565b60005b838110156105055780820151818401526020810190506104ea565b60008484015250505050565b6000601f19601f8301169050919050565b600061052d826104cb565b61053781856104d6565b93506105478185602086016104e7565b61055081610511565b840191505092915050565b60008115159050919050565b6105708161055b565b82525050565b600060408201905081810360008301526105908185610522565b905061059f6020830184610567565b9392505050565b600080fd5b600080fd5b7f4e487b7100000000000000000000000000000000000000000000000000000000600052604160045260246000fd5b6105e882610511565b810181811067ffffffffffffffff82111715610607576106066105b0565b5b80604052505050565b600061061a61042c565b905061062682826105df565b919050565b600067ffffffffffffffff821115610646576106456105b0565b5b61064f82610511565b9050602081019050919050565b82818337600083830152505050565b600061067e6106798461062b565b610610565b90508281526020810184848401111561069a576106996105ab565b5b6106a584828561065c565b509392505050565b600082601f8301126106c2576106c16105a6565b5b81356106d284826020860161066b565b91505092915050565b6000602082840312156106f1576106f0610436565b5b600082013567ffffffffffffffff81111561070f5761070e61043b565b5b61071b848285016106ad565b91505092915050565b61072d81610460565b82525050565b60006020820190506107486000830184610724565b92915050565b7f4e487b7100000000000000000000000000000000000000000000000000000000600052602260045260246000fd5b6000600282049050600182168061079557607f821691505b6020821081036107a8576107a761074e565b5b50919050565b60008190508160005260206000209050919050565b60006020601f8301049050919050565b600082821b905092915050565b6000600883026108107fffffffffffffffffffffffffffffffffffffffffffffffffffffffffffffffff826107d3565b61081a86836107d3565b95508019841693508086168417925050509392505050565b6000819050919050565b6000819050919050565b600061086161085c61085784610832565b61083c565b610832565b9050919050565b6000819050919050565b61087b83610846565b61088f61088782610868565b8484546107e0565b825550505050565b600090565b6108a4610897565b6108af818484610872565b505050565b5b818110156108d3576108c860008261089c565b6001810190506108b5565b5050565b601f821115610918576108e9816107ae565b6108f2846107c3565b81016020851015610901578190505b61091561090d856107c3565b8301826108b4565b50505b505050565b600082821c905092915050565b600061093b6000198460080261091d565b1980831691505092915050565b6000610954838361092a565b9150826002028217905092915050565b61096d826104cb565b67ffffffffffffffff811115610986576109856105b0565b5b610990825461077d565b61099b8282856108d7565b600060209050601f8311600181146109ce57600084156109bc578287015190505b6109c68582610948565b865550610a2e565b601f1984166109dc866107ae565b60005b82811015610a04578489015182556001820191506020850194506020810190506109df565b86831015610a215784890151610a1d601f89168261092a565b8355505b6001600288020188555050505b505050505050565b6000604082019050610a4b6000830185610724565b8181036020830152610a5d8184610522565b9050939250505056fea26469706673582212204639cfdc7ccf14a762639aa9dd0bb85f519aad22dbeff09cf106a332c4d9b20564736f6c63430008120033",
  "immutableReferences": {},
  "source": "// SPDX-License-Identifier: MIT\r\npragma solidity ^0.8.18;\r\n\r\ncontract Identity {\r\n\r\n    struct User {\r\n        string ipfsHash;\r\n        bool isVerified;\r\n    }\r\n\r\n    mapping(address => User) public users;\r\n\r\n    event Registered(address user, string hash);\r\n    event Verified(address user);\r\n\r\n    function register(string memory _ipfsHash) public {\r\n        users[msg.sender] = User(_ipfsHash, false);\r\n        emit Registered(msg.sender, _ipfsHash);\r\n    }\r\n\r\n    function verify(address _user) public {\r\n        users[_user].isVerified = true;\r\n        emit Verified(_user);\r\n    }\r\n\r\n    function getUser(address _user) public view returns (string memory, bool) {\r\n        return (users[_user].ipfsHash, users[_user].isVerified);\r\n    }\r\n}",
  "sourcePath": "C:\\Users\\Thanvi.LAPTOP-6V0S8C0E\\Desktop\\Blockcahin\\identity_verification\\backend\\contracts\\Identity.sol",
  "compiler": {
    "name": "solc",
    "version": "0.8.18+commit.87f61d96.Emscripten.clang"
  },
  "schemaVersion": "3.4.16",
  "updatedAt": "2026-04-12T17:11:49.257Z",
  "networkType": "ethereum",
  "devdoc": {
    "kind": "dev",
    "methods": {},
    "version": 1
  },
  "userdoc": {
    "kind": "user",
    "methods": {},
    "version": 1
  }
}